:100000000C9463000C948B000C948B000C948B006C
:100010000C948B000C948B000C948B000C948B0034
:100020000C948B000C948B000C948B000C948B0024
:100030000C948B000C948B000C948B000C948B0014
:100040000C94350C0C948B000C94030C0C94DD0B6D
:100050000C948B000C948B000C948B000C948B00F4
:100060000C947F0C0C948B000000000024002700EF
:100070002A0000000000250028002B0000000000DE
:1000800023002600290004040404040404040202DA
:100090000202020203030303030301020408102007
:1000A0004080010204081020010204081020000012
:1000B0000008000201000003040700000000000027
:1000C00000002510432211241FBECFEFD8E0DEBF71
:1000D000CDBF25E0AEE7B3E001C01D92A236B20766
:1000E000E1F713E0A0E0B1E0E8E3F3E502C005903A
:1000F0000D92AE37B107D9F710E0C2E6D0E004C0E8
:100100002197FE010E94F624C136D107C9F70E944B
:1001100097100C948F290C94000008950895AF92C5
:10012000BF92CF92DF92EF92FF920F931F93CF93E4
:10013000DF936C017B018B01040F151FEB015E0146
:10014000AE18BF08C017D10759F06991D601ED91DB
:10015000FC910190F081E02DC6010995892B79F77A
:10016000C501DF91CF911F910F91FF90EF90DF902C
:10017000CF90BF90AF900895FC01538D448D252FF3
:1001800030E0842F90E0821B930B541710F0CF9631
:10019000089501970895FC01918D828D981761F063
:1001A000A28DAE0FBF2FB11D5D968C91928D9F5F7A
:1001B0009F73928F90E008958FEF9FEF0895FC0159
:1001C000918D828D981731F0828DE80FF11D858D0C
:1001D00090E008958FEF9FEF0895FC01918D228D9F
:1001E000892F90E0805C9F4F821B91098F73992724
:1001F00008958DE794E00E94ED0021E0892B09F439
:1002000020E0822F089580E090E0892B29F00E9461
:10021000F90081110C9400000895FC01A48DA80F31
:10022000B92FB11DA35ABF4F2C91848D90E0019638
:100230008F739927848FA689B7892C93A089B18958
:100240008C91837080648C93938D848D981306C0F9
:100250000288F389E02D80818F7D80830895EF925D
:10026000FF920F931F93CF93DF93EC0181E0888F70
:100270009B8D8C8D98131AC0E889F989808185FF40
:1002800015C09FB7F894EE89FF896083E889F989E2
:1002900080818370806480839FBF81E090E0DF91E4
:1002A000CF911F910F91FF90EF900895F62E0B8D37
:1002B00010E00F5F1F4F0F731127E02E8C8D8E11F2
:1002C0000CC00FB607FCFACFE889F989808185FF59
:1002D000F5CFCE010E940D01F1CFEB8DEC0FFD2F7C
:1002E000F11DE35AFF4FF0829FB7F8940B8FEA8914
:1002F000FB8980818062CFCFCF93DF93EC01888D23
:100300008823B9F0AA89BB89E889F9898C9185FD90
:1003100003C0808186FD0DC00FB607FCF7CF8C911E
:1003200085FFF2CF808185FFEDCFCE010E940D01C8
:10033000E9CFDF91CF910895833081F028F48130A7
:1003400099F08230A9F008958730A9F08830C9F07B
:100350008430B1F4809180008F7D03C08091800053
:100360008F7780938000089584B58F7784BD08953A
:1003700084B58F7DFBCF8091B0008F778093B000E4
:1003800008958091B0008F7DF9CFCF93DF93282F10
:1003900030E0F901E255FF4F8491F901E656FF4F35
:1003A000D491F901EA57FF4FC491CC23A1F08111F8
:1003B0000E949C01EC2FF0E0EE0FFF1FE458FF4F6E
:1003C000A591B491EC91ED2381E090E009F480E0F7
:1003D000DF91CF91089580E090E0FACF1F93CF9303
:1003E000DF93282F30E0F901E255FF4F8491F901A6
:1003F000E656FF4FD491F901EA57FF4FC491CC2341
:10040000A9F0162F81110E949C01EC2FF0E0EE0F55
:10041000FF1FEE58FF4FA591B4918FB7F894EC9160
:10042000111108C0D095DE23DC938FBFDF91CF91EF
:100430001F910895DE2BF8CFCF93DF9390E0FC015E
:10044000E656FF4F24918A579F4FFC0184918823E1
:10045000C9F090E0880F991FFC01E859FF4FA59162
:10046000B491FC01EE58FF4FC591D49161110DC0BC
:100470009FB7F8948C91209582238C9388812823B0
:1004800028839FBFDF91CF910895623051F49FB7C9
:10049000F8943C91822F809583238C93E8812E2BB6
:1004A000EFCF8FB7F894EC912E2B2C938FBFEACF20
:1004B0003FB7F8948091CB039091CC03A091CD03EA
:1004C000B091CE0326B5A89B05C02F3F19F0019629
:1004D000A11DB11D3FBFBA2FA92F982F8827BC019E
:1004E000CD01620F711D811D911D42E0660F771FC6
:1004F000881F991F4A95D1F708958F929F92AF92C6
:10050000BF92CF92DF92EF92FF924B015C010E946B
:1005100058026B017C010E9458026C197D098E09FA
:100520009F09683E734081059105A8F321E0821A76
:100530009108A108B10888EEC80E83E0D81EE11C1E
:10054000F11C81149104A104B10429F7FF90EF90EC
:10055000DF90CF90BF90AF909F908F9008952091A3
:10056000A303260F3327331F21323105ECF42091EA
:100570007704FC0190E080E0243069F082E0089587
:10058000A091A3032191AC014D575C4FA40FB52F4F
:10059000B11D2C930196861798F38091A303680FE1
:1005A0006093A30380E0089581E00895109277049A
:1005B00081E0809356041092510461E082E10E9430
:1005C000EE0161E083E10E94EE01E9EBF0E0808161
:1005D0008E7F808380818D7F808388E48093B800C4
:1005E00085E48093BC000895CF93DF9391E09093CE
:1005F00082038823B9F0C091B800D091BA008091ED
:10060000BC008A7B8093BC0060E082E10E94EE0126
:1006100060E083E10E94EE010E94D602D093BA000E
:10062000C093B800DF91CF910895CF92DF92EF92FF
:10063000FF920F931F93CF93DF93D82FC62F613272
:1006400008F098C00E9458026B017C0180917704E9
:1006500081116BC081E080937704809356049FEFF3
:1006600090935504109254049C0F909353048093DC
:10067000520480915204DD0FD82BD0935204809104
:100680005104813009F078C0109251040E94580240
:100690006B017C01809152048093BB0080917904AE
:1006A00090917A04A0917B04B0917C04892B8A2BD1
:1006B0008B2BA1F00E9458020091790410917A04CA
:1006C00020917B0430917C046C197D098E099F096F
:1006D000061717072807390708F448C08091BC009F
:1006E00083FDD8CF85EC8093BC000E9458026B013B
:1006F0007C0180917704813009F440C080915404DA
:100700008C1710F4C0915404E1E3F4E0A7E5B4E0E1
:1007100080E08C1355C08C2FDF91CF911F910F91EA
:10072000FF90EF90DF90CF900895809179049091A1
:100730007A04A0917B04B0917C04892B8A2B8B2BAB
:1007400009F484CF0E9458020091790410917A0430
:1007500020917B0430917C046C197D098E099F09DE
:10076000061717072807390708F070CF809178041B
:100770000E94F402C0E0CFCF85EEB5CF809179041E
:1007800090917A04A0917B04B0917C04892B8A2BF0
:100790008B2B09F4AECF0E9458020091790410917E
:1007A0007A0420917B0430917C046C197D098E09B8
:1007B0009F09061717072807390708F09ACFD6CFE1
:1007C00091919D938F5FA5CF8F929F92AF92BF9291
:1007D000CF92DF92EF92FF920F931F93CF93DF930D
:1007E000D0911E05D13208F0D7C0182FC091300427
:1007F0000E9458026B017C018091770481116BC0CB
:1008000082E080937704109356048FEF8093550411
:1008100010925404D0935304A0E1B4E0E1E3F4E077
:1008200080E0D81391C01092520480915204CC0FF2
:10083000C82BC093520480915104813009F088C0C4
:10084000109251040E9458026B017C018091520465
:100850008093BB008091790490917A04A0917B04ED
:10086000B0917C04892B8A2B8B2BA1F00E9458021B
:100870000091790410917A0420917B0430917C04DA
:100880006C197D098E099F09061717072807390774
:1008900008F442C08091BC0083FDD8CF85EC8093E2
:1008A000BC000E9458026B017C0180917704823069
:1008B00009F450C0809155048F3F09F46FC08091B6
:1008C0005504803209F46CC080915504803309F4DA
:1008D00069C084E026C08091790490917A04A09147
:1008E0007B04B0917C04892B8A2B8B2B09F484CF59
:1008F0000E9458028090790490907A04A0907B0422
:10090000B0907C046C197D098E099F0986169706A4
:10091000A806B90608F070CF809178040E94F4020E
:1009200085E010921F0510921E0510920F04DF91B2
:10093000CF911F910F91FF90EF90DF90CF90BF90DC
:10094000AF909F908F9008959D9191938F5F69CF05
:1009500085EEA5CF8091790490917A04A0917B04D3
:10096000B0917C04892B8A2B8B2B09F49ECF0E949B
:1009700058020091790410917A0420917B043091FF
:100980007C046C197D098E099F0906171707280733
:10099000390708F08ACFC0CF81E0C3CF80E0C1CF54
:1009A00082E0BFCF83E0BDCF0895E0912105809123
:1009B0002005E81730F4F0E0E95AFB4F808190E021
:1009C00008958FEF9FEF0895909121058091200564
:1009D0002FEF3FEF981748F4E92FF0E0E95AFB4F6B
:1009E000208130E09F5F90932105C9010895809197
:1009F000200590912105891B990B0895CF92DF92D4
:100A0000EF92FF920F931F93CF93DF937C01CB0163
:100A10008A0120910F04222389F0EB016B01C40E9F
:100A2000D51ECC15DD0569F06991D701ED91FC91DA
:100A30000190F081E02DC7010995F3CF642F0E944A
:100A4000AF02C801DF91CF911F910F91FF90EF90FE
:100A5000DF90CF900895CF93DF931F92CDB7DEB78D
:100A6000698320910F042223F9F020911E05203282
:100A700058F021E030E0FC013383228390E080E0F5
:100A80000F90DF91CF91089580911F05E82FF0E03E
:100A9000E05FFB4F998190838F5F80931F05809368
:100AA0001E0581E090E0ECCF61E0CE0101960E944E
:100AB000AF02F7CF4F925F926F927F928F929F9289
:100AC000AF92BF92CF92DF92EF92FF920F931F935C
:100AD000CF93DF93FC011681A12FB0E020E833E330
:100AE00041EE51E00E94EB234B015C01C2EBD7E0E9
:100AF0009D0104E610E080E9E82EFF24F394CE0186
:100B0000825B9740821793079CF14580512C2E54AD
:100B1000384FC90164E670E00E948F237C01C9014F
:100B200060E971E00E948F236C0103E411E0C1E0F1
:100B3000D0E0390183E068227724C415D5050CF094
:100B400040C0C230D10571F56114710459F5E1144A
:100B5000F10419F4C114D10429F5B0E88B0EBBE3FC
:100B60009B1EB6E2AB1EB11C21960F5F1F4FE5CF57
:100B7000CE0183709927892B99F4CE01B8010E9488
:100B80008F23892B31F4CE01B7010E948F23892B4B
:100B900039F4A0E88A0EA1E59A1EA1E0AA1EB11CB4
:100BA0002196ADCFD8018C91A82FB0E020E831E597
:100BB00041E050E00E94EB23860E971EA81EB91E4E
:100BC000D3CF228130E0A0E1BEE00E942D246B0152
:100BD0007C01218130E0ACE3B0E00E942D24C60E00
:100BE000D71EE81EF91E8081C80ED11CE11CF11C25
:100BF000A481A150BB0B20E831E541E050E00E9408
:100C0000EE246C0D7D1D8E1D9F1D680D791D8A1DA6
:100C10009B1DDF91CF911F910F91FF90EF90DF907F
:100C2000CF90BF90AF909F908F907F906F905F908C
:100C30004F9008956F927F928F929F92AF92BF9242
:100C4000CF92DF92EF92FF920F931F93CF93DF9398
:100C50006B017C01EA018CE3882E912CA12CB12C34
:100C6000C701A50194010E94A3236883CA01B901A9
:100C7000A50194010E94A3236983C701B60120E165
:100C80003EE040E050E00E94A323CA01B90128E100
:100C900030E040E050E00E94A3236A83C701B60120
:100CA00020E831E541E050E00E94A32369017A0188
:100CB000CA01B9016C5F7F4F8F4F9F4F27E030E033
:100CC00040E050E00E94A3236F5F6B83812C912C46
:100CD000540140E094E6692E712C00E911E0242FC4
:100CE00030E02E54384FF901E370FF273097F9F4C4
:100CF000C901B3010E948F23892B31F4C901B801C6
:100D00000E948F23892B99F48EE691E0A0E0B0E059
:100D1000880E991EAA1EBB1ED501C401AA27BB2797
:100D2000C816D906EA06FB0638F04F5FD8CF8DE625
:100D300091E0A0E0B0E0ECCF4E83C90164E670E042
:100D40000E948F238C01C90160E971E00E948F230A
:100D5000309729F401151105E1F40097D1F04DE623
:100D600051E060E070E0841A950AA60AB70AC81834
:100D7000D908EA08FB08A3E4B1E020E0213071F4CF
:100D8000309791F50115110511F4009769F54DE1C2
:100D900006C04EE651E060E070E0E5CF4C9150E0D7
:100DA00070E060E031E0320FC416D506E606F706C3
:100DB00040F0C41AD50AE60AF70A1196232F3C30F0
:100DC000E9F62F5F2D83C394CC82DF91CF911F91E1
:100DD0000F91FF90EF90DF90CF90BF90AF909F90DA
:100DE0008F907F906F9008954CE1D9CFCF92DF9292
:100DF000EF92FF92C0907E03D0907F03E09080033B
:100E0000F0908103C616D706E806F90671F06B016B
:100E10007C014FEC53E00E941A06C0927E03D092F0
:100E20007F03E0928003F0928103FF90EF90DF90C8
:100E3000CF900895282F30E094E0359527959A9526
:100E4000E1F7922F990F990F291B220F820F089516
:100E5000089590E080E00895CF93DF93CDB7DEB79B
:100E600068970FB6F894DEBF0FBECDBF28E1EBE266
:100E7000F1E0DE01119601900D922A95E1F7FC0157
:100E80003197EE0FFF1F81E090E08C0F9D1FE80F60
:100E9000F91F8081918168960FB6F894DEBF0FBE6E
:100EA000CDBFDF91CF9108958F929F92AF92BF9265
:100EB000CF92DF92EF92FF920F931F93CF93DF9326
:100EC0006C01CB015A01E90146012C153D050CF4DA
:100ED00049010E942C0794012C153D054CF4A901F1
:100EE00043705527452B09F401962F5F3F4FF4CFF0
:100EF000A80EB91EC818D9082DE631E0C29EC0015F
:100F0000C39E900DD29E900D1124A80EB91EC4014F
:100F1000D12CC12C8C179D0754F49C0123703327CE
:100F2000232B19F42FEFC21AD20A0196F3CFC8016E
:100F30000E942C078C0D9D1DE80EF91EC819D909B9
:100F40002DE631E0C29FC001C39F900DD29F900D4E
:100F500011248E0D9F1D8A199B09DF91CF911F913E
:100F60000F91FF90EF90DF90CF90BF90AF909F9048
:100F70008F900895CF93DF9300D000D000D01F92C0
:100F8000CDB7DEB781E080930F0488E6809330040C
:100F900010921F0510921E0560E082E295E00E940B
:100FA0002B0581E00E94E403811148C067E088E6D8
:100FB0000E941503109221058093200582E295E09E
:100FC0000E94E4048F770E941A07898382E295E0E9
:100FD0000E94E4040E941A078A8382E295E00E943C
:100FE000E4048F7B0E941A078B8382E295E00E94C3
:100FF000E4048C8382E295E00E94E4040E941A07D4
:101000008D8382E295E00E94E4048F770E941A07A4
:101010008E8382E295E00E94E4040E941A07825EB9
:101020008F83CE0101960E945A0527960FB6F89439
:10103000DEBF0FBECDBFDF91CF91089560E070E0BD
:10104000CB01F3CFCF93DF93EC0160E08E810E9460
:10105000EE0161E08E810E94EE0160E08E810E94CF
:10106000EE018BE891E00197F1F7DF91CF910895C0
:10107000CF92DF92EF92FF920F931F93CF93DF9364
:101080006C017C0187E0E80EF11CD0E0C0E0062F87
:1010900010E0B8010C2E02C0759567950A94E2F72E
:1010A0006170F70181917F010E94EE012196C430A9
:1010B000D10579F7C601DF91CF911F910F91FF9074
:1010C000EF90DF90CF900C942208CF92DF92EF92B6
:1010D000FF920F931F93CF93DF93EC01F62E642FB3
:1010E0008C810E94EE018D818F3F19F060E00E949B
:1010F000EE010F2D10E08F8584FF25C06E0187E083
:10110000C80ED11CF12CE12CB8010E2C02C0759533
:1011100067950A94E2F76170F60181916F010E9470
:10112000EE01FFEFEF1AFF0A88E0E816F10461F71D
:10113000CE01DF91CF911F910F91FF90EF90DF9043
:10114000CF900C942208B80184E0759567958A9534
:10115000E1F7CE010E9438086F2DCE01DF91CF91CB
:101160001F910F91FF90EF90DF90CF900C94380873
:1011700040E0682F84E395E00C94650881E00E94CC
:10118000B8088BE39FE10197F1F70895CF93DF93C0
:10119000823029F4909143059860909343058093A1
:1011A00047051092480580E48093490580E18093CB
:1011B0004A0580E580934B0561E0809138050E94E7
:1011C0001C02809139058F3F19F061E00E941C02DA
:1011D00061E080913A050E941C02C4E3D5E09E01C3
:1011E000245335408091430584FD0BC084E090E09A
:1011F00021962817390744F461E08E810E941C0271
:10120000EECF88E090E0F4CF8BE39DE00197F1F71B
:1012100060E0809138050E94EE0160E080913A051F
:101220000E94EE01809139058F3F19F060E00E9425
:10123000EE018091430584FD34C063E084E395E0D2
:101240000E943808CBE4D6E4CE010197F1F763E0C1
:1012500084E395E00E9438082197F1F763E084E386
:1012600095E00E94380883E592E00197F1F762E08B
:1012700084E395E00E9438088091430580620E94D3
:10128000B80884E0809344058CE00E94B8080E946E
:10129000BE0882E08093450586E0DF91CF910C94F3
:1012A000B80880620E94B8088BE496E40197F1F7D1
:1012B0008091430580620E94B80883E592E001971F
:1012C000F1F78091430580620E94B808D5CF9091D4
:1012D0004705691710F06FEF690FE62FF0E0EC5C3F
:1012E000FA4F9489890F80680C94B80841E00E94F5
:1012F000650881E090E008950F931F93CF93DF93EB
:101300008B0128E0829FC001112480640E94B808EC
:10131000E801085F1F4F699184E395E00E94760918
:10132000C017D107C1F7DF91CF911F910F91089599
:10133000FC0180819181009711F00C94982508950B
:10134000EF92FF920F931F93CF93DF93EC017B01FA
:101350008A0188819981009729F02A813B8124178D
:10136000350788F4B8016F5F7F4F0E9421260097F0
:1013700091F0998388831B830A832C813D81232BE1
:1013800011F4FC0110821D830C83B70188819981BF
:101390000E94E7260CC088819981009711F00E9475
:1013A0009825198218821D821C821B821A82CE0106
:1013B000DF91CF911F910F91FF90EF900895FC0165
:1013C000118210821382128215821482FB01019015
:1013D0000020E9F73197AF01461B570B0C94A00989
:1013E000FB0101900020E9F73197AF01461B570B35
:1013F000DC01ED91FC910280F381E02D09948F9244
:101400009F92AF92BF920F931F93CF93DF93CDB76D
:10141000DEB7A1970FB6F894DEBF0FBECDBF19A2FD
:10142000423008F44AE08E010F5D1F4F842E912C4C
:10143000B12CA12CA50194010E94A323E62FB90190
:10144000CA01EA3004F5E05DD801EE938D01232B4B
:10145000242B252B79F790E080E0109729F0BD012F
:1014600084E395E00E94F009A1960FB6F894DEBFE0
:101470000FBECDBFDF91CF911F910F91BF90AF9065
:101480009F908F900895E95CDFCF682F70E090E027
:1014900080E04AE00C94FF09CF92DF92EF92FF9236
:1014A0006C01990FEE08FF08F7FE16C041E06DE2EF
:1014B00084E395E00E94650866277727CB016C19C5
:1014C0007D098E099F094AE00E94FF090196FF905D
:1014D000EF90DF90CF9008954AE0C701B601FF90EA
:1014E000EF90DF90CF900C94FF094F925F926F9234
:1014F0007F928F929F92AF92BF92CF92DF92EF92A4
:10150000FF92CF93DF936B017C01AC019B010E94A2
:10151000DD246FE771E0811126C046015701E89490
:10152000B7F82FEF3FEF4FE75FE7C501B4010E9427
:10153000DD2481110CC02FEF3FEF4FE75FE7C501BE
:10154000B4010E94472263E871E0181664F02FEF9F
:101550003FEF4FE75FE4C701B6010E94D824181699
:10156000A4F467E871E084E395E0DF91CF91FF9008
:10157000EF90DF90CF90BF90AF909F908F907F9033
:101580006F905F904F900C94F0092FEF3FEF4FE773
:101590005FECC701B6010E94472287FDE2CF20E041
:1015A00030E0A901C701B6010E944722D0E0C0E0A7
:1015B00087FF0CC041E06DE284E395E00E9465087E
:1015C000F7FAF094F7F8F094C1E0D0E02AE037EDB4
:1015D00043EA5BE3C701B6010E943D244B015C0175
:1015E0000E94A9246B017C010E944C229B01AC014A
:1015F000C501B4010E943C244B015C014AE0C701D3
:10160000B6010E94FF097C01EC0EFD1E41E06EE276
:1016100084E395E00E9465088FEFE81AF80A20E05D
:1016200030E040E251E4C501B4010E94AD222B013B
:101630003C010E94A9244B01B12CA12C4AE0C50118
:10164000B4010E94FF09E80EF91EC501B4010E9411
:101650004C229B01AC01C301B2010E943C2420E05A
:1016600030E040E251E40E94AD220E94A92490E0C3
:1016700080E04AE00E94FF098E0D9F1DDF91CF910F
:10168000FF90EF90DF90CF90BF90AF909F908F90A2
:101690007F906F905F904F9008950C94F0090F9396
:1016A0001F93CF93DF938C0182E00E94C50190933A
:1016B0000E0480930D04C0910B04D0910C04809112
:1016C0000D0490910E04892B61F464E670E080E0D3
:1016D00090E00E947D022196D0930C04C0930B04ED
:1016E000E3CFCE0101970497A8F464E670E080E0B0
:1016F00090E00E947D020E94BE0810920C0410929D
:101700000B0410930A0400930904DF91CF911F91F9
:101710000F9108952597CCF30E94BE086BE871E005
:1017200084E395E00E944D0B64E670E080E090E079
:101730000E947D0210920C0410920B0481E090E054
:1017400090930A0480930904E0CF85ED8093BC0058
:101750008091790490917A04A0917B04B0917C04EB
:101760000796A11DB11D23E0B695A795979587957E
:101770002A95D1F72091BC0024FD03C01092770474
:1017800008954091790450917A0460917B0470919E
:101790007C04452B462B472B69F30097A105B10527
:1017A00041F025E32A95F1F700000197A109B1095D
:1017B000E1CF809178040C94F4021F920F920FB63F
:1017C0000F9211242F933F934F935F936F937F93C7
:1017D0008F939F93AF93BF93EF93FF938DE794E025
:1017E0000E940D01FF91EF91BF91AF919F918F9159
:1017F0007F916F915F914F913F912F910F900FBE0D
:101800000F901F9018951F920F920FB60F921124F0
:101810002F938F939F93EF93FF93E0918D04F0911B
:101820008E048081E0919304F091940482FD1BC0AA
:101830009081809196048F5F8F7320919704821717
:1018400041F0E0919604F0E0E358FB4F958F8093D0
:101850009604FF91EF919F918F912F910F900FBE62
:101860000F901F9018958081F4CF1F920F920FB6A2
:101870000F9211242F933F938F939F93AF93BF9316
:101880008091C7039091C803A091C903B091CA0386
:101890003091C60323E0230F2D3758F50196A11D83
:1018A000B11D2093C6038093C7039093C803A093F0
:1018B000C903B093CA038091CB039091CC03A0914C
:1018C000CD03B091CE030196A11DB11D8093CB0332
:1018D0009093CC03A093CD03B093CE03BF91AF916F
:1018E0009F918F913F912F910F900FBE0F901F905E
:1018F000189526E8230F0296A11DB11DD2CF1F9285
:101900000F920FB60F9211242F933F934F935F9333
:101910006F937F938F939F93AF93BF93EF93FF93B7
:101920008091B900887F803609F44AC0F0F588328A
:1019300009F4A7C018F5803109F49BC0B8F48823D6
:1019400009F4F9C0883009F494C0FF91EF91BF9178
:10195000AF919F918F917F916F915F914F913F9147
:101960002F910F900FBE0F901F901895883109F49A
:1019700088C0803251F78093550414C0803409F434
:101980009DC040F48033B9F38833F9F68093550451
:1019900085ECB0C0803509F485C0883509F496C05F
:1019A000883499F60E94A50BD0CF883909F48CC0F1
:1019B00038F5883729F050F4883611F0803729F649
:1019C00083E0809377041092C50357C0883809F4E8
:1019D0007BC0803919F0803809F0B7CF8091C503FA
:1019E000803208F071C0E091C50381E08E0F8093D2
:1019F000C5038091BB00F0E0EB55FC4F80833DC0F8
:101A0000803B39F0E0F4803A09F479C0883A09F073
:101A10009CCF84E0809377041092A4031092A303D8
:101A2000E0911A05F0911B0509958091A30381119E
:101A30000FC081E08093A3031092830309C0803C10
:101A400009F4A6CF883C09F4A3CF883B09F07DCFE9
:101A5000E091A40381E08E0F8093A403F0E0ED57A2
:101A6000FC4F80818093BB009091A4038091A303DD
:101A700029C0809152048093BB0085EC8093BC0008
:101A800064CF9091540480915304981758F5E091D5
:101A9000540481E08E0F80935404F0E0EF5CFB4F20
:101AA0008081E9CFE091540481E08E0F809354044B
:101AB0008091BB00F0E0EF5CFB4F80839091540479
:101AC000809153049817C8F285E8D8CFE091540468
:101AD00081E08E0F809354048091BB00F0E0EF5CB6
:101AE000FB4F80838091560481115CCF81E080930D
:101AF000510484EA8093BC001092770426CF85ECD1
:101B00008093BC00109277048091C503803230F43A
:101B1000E091C503F0E0EB55FC4F10826091C503E6
:101B200070E0E0911C05F0911D0585EA93E00995B0
:101B30001092C5030ACF1092550434CF6CE475E0BF
:101B40000E94A50D8CE495E00895A4E0B0E0EBEAD6
:101B5000FDE00C9400246C017B01E0915C05F091A8
:101B60005D050FEF1FEF309721F068E575E00995EF
:101B70008C01F60180819181A281B3814091580549
:101B80005091590560915A0570915B05840F951F1E
:101B9000A61FB71F1016110684F089839A83AB83A2
:101BA000BC83B701CE0101960E943E0EF701138758
:101BB00002872496E8E00C941C24A801012E000C56
:101BC000660B770B840F951FA61FB71FE6CFA4E007
:101BD000B0E0EDEEFDE00C9404248C010E94020FB5
:101BE00069837A838B839C83F8018285938597FF31
:101BF0000EC0E0915C05F0915D05309741F068E51D
:101C000075E0CE0101960995F80193878287F80166
:101C1000828593851816190684F4092E000CAA0BE8
:101C2000BB0B49815A816B817C81481B590B6A0B24
:101C30007B0B49835A836B837C8389819A81AB8137
:101C4000BC81409158055091590560915A05709199
:101C50005B05841B950BA60BB70B89839A83AB831B
:101C6000BC83B801CE0101960E94A50D69817A81DD
:101C70008B819C812496E4E00C942024A8E0B0E0C1
:101C8000E4E4FEE00C9400248B01FC01608171818E
:101C90008281938120E831E541E050E00E94A32356
:101CA00069017A012CE330E040E050E00E94C52356
:101CB00029833A834B835C8389819A81AB81BC8180
:101CC000F80160836CE370E00E948F23DC01F8016F
:101CD000A1836283C601069667E070E00E947B23C1
:101CE00084832DEA3EE840E050E0C701B6010E943F
:101CF000C52329833A836D837E838F839887898167
:101D00009A8124E6289F6001299FD00C11246D81BF
:101D10007E818F81988525EB35E040E050E00E9480
:101D2000C52329833A836D837E83E980FA80EE0C94
:101D3000FF1CEE0CFF1CEC0CFD1C8D819E81F5E65A
:101D4000EF16F104A0F1019621E030E0A901445919
:101D50005E4F4817590760F46DE671E0821B930BE4
:101D60000E948F23DC01E60EF71ECD0130E020E05B
:101D700044E6E40EF11CF801F782E6829187808741
:101D8000255C3F4F82179307E0F46FE170E00E94FB
:101D90008F23DC01F8016583A383F8011386128683
:101DA00083818F5F83832896E8E00C941C2451E0A4
:101DB00040E024E6E216F10409F450E0252F342F28
:101DC000C5CF69E970E0821B930B0E948F23DC0171
:101DD000262F220F220FF22EF60E6DE370E0CD01BA
:101DE0000E948F23DC01E62EEE0C6FE170E0CD0146
:101DF0000E948F23DC0122E0260F2F0D2E0DF8010B
:101E00002583CACF8F929F92AF92BF92CF92DF92DB
:101E1000EF92FF92CF93DF93EC01EE81FF817F0180
:101E200024E6E21AF108D12CC12CB1F0CF0185567D
:101E300091096C0197FF03C023E0C20ED11CD59419
:101E4000C794D594C7946CE97FEF0E948F23C60E88
:101E5000D71E8FEFC81AD80A2DE631E0D7010E94AD
:101E6000E4234601DD0CAA08BB08860E971EA81EB7
:101E7000B91E8B81082E000C990B7C0121E0E21A1F
:101E8000F1082D8122300CF049C0222321F07C0181
:101E90002EE1E20EF11C6701FF0CEE08FF08C80CF2
:101EA000D91CEA1CFB1CAA810A2E000CBB0B20E1EA
:101EB0003EE00E94E4234B015C01A9810A2E000C44
:101EC000BB0B2CE330E00E94E423AB01BC01480DC6
:101ED000591D6A1D7B1D8881082E000C990BAA0BC9
:101EE000BB0B4C015D01840E951EA61EB71EA701FB
:101EF000960160E871E581E090E00E946B23680D37
:101F0000791D8A1D9B1DDF91CF91FF90EF90DF908F
:101F1000CF90BF90AF909F908F900895CF0184593C
:101F2000984F0E94BE0FC82ED12C8BE3C80ED11C37
:101F3000CE0CDF1C8D81082E000C990B029785308A
:101F400091051CF029E9C20ED11C65E070E00E94E9
:101F50008F239C0197FF02C02F5F3F4F3595279538
:101F60009DE3929F7001939FF00C1124EC0CFD1CDB
:101F700080FF91CF8FE1E80EF11C8DCF9C01237083
:101F80003327232B59F464E670E00E948F23892BBA
:101F900039F46370772781E0672B19F080E00895AA
:101FA00081E00895CF92DF92F6019093240180930F
:101FB0002301709322016093210120931D0130932E
:101FC0001E0140931F015093200180E090E0ACE59A
:101FD000B2E48093190190931A01A0931B01B0936E
:101FE0001C0180E090E0A6E9B2E480931501909393
:101FF0001601A0931701B093180185E0EE32F8079F
:1020000009F1608171816115710541F0448155814B
:102010008EE295E0DF90CF900C94A00980912E0580
:1020200090912F05009711F00E94982510922F058E
:1020300010922E0510923305109232051092310540
:1020400010923005DF90CF900895EDE7F4E0138211
:10205000128288EE93E0A0E0B0E084839583A683AB
:10206000B78323E531E03183208325EC30E03587E9
:10207000248724EC30E03787268720EC30E0318B52
:10208000208B21EC30E0338B228B22EC30E0358B3F
:10209000248B26EC30E0378B268B118E128E138E1C
:1020A000148EE2E2F5E01382128284839583A68384
:1020B000B78385E691E09183808310922105109289
:1020C000200510921F0510921E050E94D6028DE871
:1020D00090E090931B0580931A058EE890E0909312
:1020E0001D0580931C05E4E3F5E01382128287E767
:1020F00091E0918380838CE084838FEF85838BE0F4
:1021000086838AE0878389E0808788E0818787E00B
:1021100082871386148615861686178681E00E94AC
:10212000C60861E971E08EE295E00C94DF09CF9377
:10213000DF93CDB7DEB7A8970FB6F894DEBF0FBE1A
:10214000CDBF789484B5826084BD84B5816084BD40
:1021500085B5826085BD85B5816085BD80916E0045
:10216000816080936E001092810080918100826076
:1021700080938100809181008160809381008091B3
:1021800080008160809380008091B10084608093A2
:10219000B1008091B00081608093B00080917A009E
:1021A000846080937A0080917A00826080937A00C4
:1021B00080917A00816080937A0080917A008068B3
:1021C00080937A001092C10062E082E00E941C02BB
:1021D00062E083E00E941C0262E080E00E941C0238
:1021E00061E084E00E941C0261E085E00E941C0224
:1021F00061E086E00E941C0261E081E10E941C0215
:1022000061E084E00E94EE0161E085E00E94EE0161
:1022100061E081E10E94EE0161E086E00E94EE0152
:10222000E0918D04F0918E0482E08083E091890436
:10223000F0918A041082E0918B04F0918C048FEC71
:10224000808310929504E0919104F091920486E0CD
:102250008083E0918F04F09190048081806180837D
:10226000E0918F04F0919004808188608083E091F8
:102270008F04F0919004808180688083E0918F04C6
:10228000F091900480818F7D808367E971E08DE714
:1022900094E00E944D0B82E00E94C60860E080E05E
:1022A0000E9467096EE971E084E395E00E944D0B9E
:1022B00061E080E00E9467096EEA71E084E395E0E6
:1022C0000E944D0B68EC70E080E090E00E947D027F
:1022D0000E94BE08109221051092200510921F0541
:1022E00010921E050E94D6028DE890E090931B0587
:1022F00080931A058EE890E090931D0580931C054D
:102300000E94BA076B017C010E94F6068091D103FE
:102310008093F803C701B6010E94F6068091D003AE
:102320008093F703C701B6010E94F6068091CF03A0
:102330008093F603C701B6010E94F6068091D5038B
:1023400090E08E54984F9093130180931201C7012F
:10235000B6010E94F6068091D4038093F503C7016D
:10236000B6010E94F6068091D3038093F4039E0188
:102370002F5F3F4F190119821A821B821C821D8216
:1023800061E08DE00E941C0260E08DE00E94EE01A1
:1023900062E170E080E090E00E947D0261E08DE00B
:1023A0000E94EE018BE990E00197F1F760E08DE08B
:1023B0000E941C0201E117E28DE00E94C501892BF9
:1023C00009F09FC101501109B9F76091050470919E
:1023D0000604072E000C880B990B0E944E222B013D
:1023E0003C014092010450920204609203047092F6
:1023F00004046091070470910804072E000C880BF8
:10240000990B0E944E226E8F7F8F88A399A36093B1
:10241000FD037093FE038093FF039093000480916B
:102420001401813009F03FC00E94BA076B017C01A2
:10243000C092F903D092FA03E092FB03F092FC03FE
:102440000E94F6068091D1038093F803C701B6017C
:102450000E94F6068091D0038093F703C701B6016E
:102460000E94F6068091CF038093F603C701B60160
:102470000E94F6068091D50390E08E54984F909379
:10248000130180931201C701B6010E94F6068091E4
:10249000D4038093F503C701B6010E94F60680912C
:1024A000D3038093F4038090F9039090FA03A090F3
:1024B000FB03B090FC038091F303811123C02091B2
:1024C0001001309111014CE3429FC001439F900DD8
:1024D0001124092E000CAA0BBB0B880D991DAA1DF7
:1024E000BB1D8093EF039093F003A093F103B0938F
:1024F000F20381E08093F30368EC70E080E090E009
:102500000E947D02C090EB03D090EC03E090ED03BD
:10251000F090EE03C701B6010E94F6068091D30346
:10252000A82FB0E0B8A7AFA3C701B6010E94F60676
:102530000091D40310E0C701B6010E94F606809115
:10254000D50390E0FC01EE54F84FFEA3EDA3C501C6
:10255000B4010E94F6068091D303282F30E03CA3FB
:102560002BA3C501B4010E94F606C090D403D12C60
:10257000C501B4010E94F6068091D50390E0EFA05A
:10258000F8A42DA13EA14BA15CA1B6018E54984F99
:102590000E9454079093EA038093E903209123015A
:1025A000309124014091210150912201241B350BCF
:1025B000281739070CF005C12091190130911A0133
:1025C00040911B0150911C01C301B2010E9447229E
:1025D00060E087FF61E085E00E94EE0120911D012F
:1025E00030911E0140911F01509120016E8D7F8D11
:1025F00088A199A10E94472260E087FF61E086E000
:102600000E94EE018091EF039091F003A091F103FD
:10261000B091F20388159905AA05BB0508F0DAC048
:1026200060E084E00E94EE010E94BE086AEB71E067
:1026300084E395E00E944D0B68EC70E080E090E050
:102640000E947D0220911001309111014CE3429FC4
:10265000C001439F900D1124092E000CAA0BBB0B47
:102660004091F9035091FA036091FB037091FC03D0
:10267000840F951FA61FB71F8093EF039093F0035D
:10268000A093F103B093F2038091090490910A049E
:10269000009709F0ABC060E080E00E94670965EC3C
:1026A00071E084E395E00E944D0B61E080E00E94C0
:1026B000670967ED71E084E395E00E944D0B68ECDB
:1026C00070E080E090E00E947D020E94BE08809150
:1026D000E803811184C089E090E090930A0480931C
:1026E000090481E08093E80380E090E0892B09F4FD
:1026F00042CE0E94F900882309F43DCE0E940000DA
:102700003ACE01E117E28DE00E94C501019721F464
:1027100001501109C1F759CE58E2E52EF12C17E00E
:1027200000E041E1C42E47E2D42E8DE00E94C501B5
:10273000892B29F431E0C31AD108B9F746CE0E949B
:1027400058024B015C0131E1C32E37E2D32E8DE0FC
:102750000E94C501019729F481E0C81AD108B9F790
:1027600034CE0E945802681979098A099B09693296
:1027700071058105910568F0F101E00FF11D80817F
:1027800021E030E0012E01C0220F0A94EAF7822BEB
:102790008083111114C00F5F17E091E0E91AF1086E
:1027A00009F0BFCF898190E09093060480930504DF
:1027B0008B8190E0909308048093070406CE11501B
:1027C000ECCF2091150130911601409117015091E5
:1027D0001801FACE61E084E00E94EE0155CF81E05D
:1027E00090E090930A04809309047ECF8130910594
:1027F00009F0B2C08091F6031F928F938091F70386
:102800001F928F938091F8031F928F938091F5030D
:102810001F928F938091F4031F928F938AEE91E021
:102820009F938F933F922F920E94EE268091F60302
:1028300083700FB6F894DEBF0FBECDBF60E082306C
:1028400008F054C080E00E946709B10184E395E07C
:102850000E944D0B61E080E00E94670965E072E034
:1028600084E395E00E944D0B8091E9039091EA0387
:102870000E944C0A6EE072E084E395E00E944D0BEA
:1028800082E00E94C501892B41F482E090E09093A0
:102890000A04809309040E94BE0883E00E94C501D7
:1028A000892B41F48AE090E090930A048093090414
:1028B0000E94BE0880E00E94C501892B41F48BE094
:1028C00090E090930A04809309040E94BE0882E07D
:1028D0000E94C501892B09F007CF82E090E0909318
:1028E0000A04809309040E94BE08FECE80E00E9484
:1028F000670963E172E084E395E00E944D0B60E0BC
:102900008CE00E9467096091FD037091FE03809145
:10291000FF03909100040E94750A61E080E00E942C
:10292000670960E272E084E395E00E944D0B61E08C
:1029300086E00E9467096091010470910204809111
:102940000304909104040E94750A61E08AE00E94E9
:1029500067096FE073E090CF8230910509F048C0BD
:1029600060E080E00E94670967E272E084E395E03E
:102970000E944D0B61E080E00E94670965E372E010
:1029800084E395E00E944D0B68E071E081E00E94D5
:102990007C0961E088E00E94670961E084E395E0DA
:1029A0000E9476096AEF70E080E090E00E947D026C
:1029B00082E00E94C501892B21F48CE090E00E9406
:1029C0004F0B80E00E94C501892B09F08DCE80E07D
:1029D0000E94C501892B39F46AE070E080E090E044
:1029E0000E947D02F4CF0E94BE0883E090E0F9CE01
:1029F0008330910509F04CC060E080E00E946709D7
:102A000065E472E084E395E00E944D0B61E080E0B4
:102A10000E94670964E572E084E395E00E944D0B33
:102A200068E071E081E00E947C0961E088E00E943A
:102A3000670961E084E395E00E94760964E670E04E
:102A400080E090E00E947D0282E00E94C501892B17
:102A500021F48DE090E00E944F0B80E00E94C501C0
:102A6000892B09F041CE80E00E94C501892B39F401
:102A70006AE070E080E090E00E947D02F4CF0E9466
:102A8000BE08E4E0F0E0F0930A04E09309042CCEE1
:102A90008430910509F04CC060E080E00E94670935
:102AA00069E173E084E395E00E944D0B61E080E012
:102AB0000E94670964E572E084E395E00E944D0B93
:102AC00068E071E081E00E947C0961E088E00E949A
:102AD000670961E084E395E00E94760964E670E0AE
:102AE00080E090E00E947D0282E00E94C501892B77
:102AF00021F48EE090E00E944F0B80E00E94C5011F
:102B0000892B09F0F1CD80E00E94C501892B39F4B1
:102B10006AE070E080E090E00E947D02F4CF0E94C5
:102B2000BE0825E030E030930A0420930904DCCD90
:102B30008530910509F048C060E080E00E94670997
:102B400065E273E084E395E00E944D0B61E080E074
:102B50000E94670964E572E084E395E00E944D0BF2
:102B600068E071E081E00E947C0961E088E00E94F9
:102B7000670961E084E395E00E94760964E670E00D
:102B800080E090E00E947D0282E00E94C501892BD6
:102B900021F48FE090E00E944F0B80E00E94C5017D
:102BA000892B09F0A1CD80E00E94C501892B39F461
:102BB0006AE070E080E090E00E947D02F4CF0E9425
:102BC000BE0886E090E00DCE8630910509F048C041
:102BD00060E080E00E94670964E672E084E395E0CB
:102BE0000E944D0B61E080E00E94670964E572E09D
:102BF00084E395E00E944D0B68E071E081E00E9463
:102C00007C0961E088E00E94670961E084E395E067
:102C10000E94760964E670E080E090E00E947D0208
:102C200082E00E94C501892B21F480E190E00E949E
:102C30004F0B80E00E94C501892B09F055CD80E043
:102C40000E94C501892B39F46AE070E080E090E0D1
:102C50000E947D02F4CF0E94BE0887E090E0C1CDC3
:102C60008730910509F04AC060E080E00E94670962
:102C700063E772E084E395E00E944D0B61E080E041
:102C80000E94670964E572E084E395E00E944D0BC1
:102C900068E071E081E00E947C0961E088E00E94C8
:102CA000670961E084E395E00E94760964E670E0DC
:102CB00080E090E00E947D0282E00E94C501892BA5
:102CC00031F41092140181E190E00E944F0B80E0FA
:102CD0000E94C501892B09F007CD80E00E94C50143
:102CE000892B39F46AE070E080E090E00E947D0278
:102CF000F4CF0E94BE0888E090E073CD8830910543
:102D000009F048C060E080E00E9467096EE772E069
:102D100084E395E00E944D0B61E080E00E9467092A
:102D200064E572E084E395E00E944D0B68E071E099
:102D300081E00E947C0961E088E00E94670961E00F
:102D400084E395E00E94760964E670E080E090E01C
:102D50000E947D0282E00E94C501892B21F489E056
:102D600090E00E944F0B80E00E94C501892B09F082
:102D7000BBCC80E00E94C501892B39F46AE070E089
:102D800080E090E00E947D02F4CF0E94BE0882E0C5
:102D900090E027CD8930910509F085C0109123017D
:102DA0008091F9039091FA03A091FB03B091FC0389
:102DB0008A8F9B8FAC8FBD8FCE014A960E949E0D4D
:102DC000DC0113962C911397210F13962C930E94DC
:102DD000E70D6093EB037093EC038093ED03909306
:102DE000EE0360E080E00E9467096FE872E084E330
:102DF00095E00E944D0B61E080E00E9467098090A1
:102E0000EB039090EC03A090ED03B090EE03C501AE
:102E1000B4010E94F606E090D303F12CC501B40181
:102E20000E94F6060091D40310E0C501B4010E948F
:102E3000F606C090D503D12CBEE4CB1AB8EFDB0A5E
:102E40004090F9035090FA036090FB037090FC03EC
:102E5000C301B2010E94F6068090D303912CC301F6
:102E6000B2010E94F606A090D403B12CC301B201B6
:102E70000E94F6068091D50390E09601A401B50169
:102E80008E54984F0E9454079093EA038093E9036D
:102E90000E944C0A6CEB72E080E090E00E947D02A0
:102EA000E1E0F0E0F0CD8A30910509F041C060E04A
:102EB00080E00E9467096FE972E084E395E00E9478
:102EC0004D0B60E085E00E9467094091320550910A
:102ED000330560912E0570912F0584E395E00E94E3
:102EE0008F0061E080E00E94670960911D01709190
:102EF0001E0180911F01909120010E94750A61E0DE
:102F000086E00E9467096091190170911A01809111
:102F10001B0190911C010E94750A60ED77E080E032
:102F200090E00E947D020E94BE0821E030E0FBCDCF
:102F30008B30910551F50E94BE0860E080E00E9450
:102F4000670964EA72E084E395E00E944D0B61E05A
:102F500080E00E9467098091F9039091FA03209123
:102F6000EF033091F003821B930B6CE370E00E943F
:102F70008F23CB010E944C0A60ED77E080E090E067
:102F80000E947D0281E090E0AACC8C30910509F08E
:102F90004BC28091E6039091E703892B09F0BDC0F5
:102FA00060E080E00E94670965EB72E084E395E0F1
:102FB0000E944D0B61E080E00E94670967E073E0CA
:102FC00084E395E00E944D0B68E071E081E00E948F
:102FD0007C0961E088E00E94670961E084E395E094
:102FE0000E94760964E670E080E090E00E947D0235
:102FF00082E00E94C501892B09F040C082E00E9456
:10300000C50190930E0480930D040091E403109188
:10301000E50380910D0490910E04892B69F464E618
:1030200070E080E090E00E947D020F5F1F4F1093E0
:10303000E5030093E403E2CFC8010197049780F50C
:1030400064E670E080E090E00E947D020E94BE088D
:103050006FEB72E084E395E00E944D0B68EC70E04A
:1030600080E090E00E947D02A1E0B0E0B0930A040D
:10307000A09309041092E7031092E60380E00E94F7
:10308000C501892B09F049C080E00E94C501892B48
:10309000E1F56AE070E080E090E00E947D02F4CF0C
:1030A000053011055CF30E94BE0865EC72E084E314
:1030B00095E00E944D0B61E971E0C1010E94DF09BA
:1030C00061011DECE12E1CECF12E04E112E426E678
:1030D00036E646E152E462E070E085E190E00E946D
:1030E000D20FC1010E94980968EC70E080E090E086
:1030F0000E947D021092E5031092E403E1E0F0E00B
:10310000F0930A04E0930904B5CF0E94BE0821E0C1
:1031100030E03093E7032093E6038091E60390913B
:10312000E703019709F0BDC060E080E00E946709F5
:1031300062ED72E084E395E00E944D0B61E080E077
:103140000E94670967E073E084E395E00E944D0BFD
:1031500068E071E081E00E947C0961E088E00E9403
:10316000670961E084E395E00E94760964E670E017
:1031700080E090E00E947D0282E00E94C501892BE0
:1031800009F040C082E00E94C50190930E04809334
:103190000D040091E4031091E50380910D049091DA
:1031A0000E04892B69F464E670E080E090E00E94F0
:1031B0007D020F5F1F4F1093E5030093E403E2CFFE
:1031C000C8010197049780F564E670E080E090E024
:1031D0000E947D020E94BE086FEB72E084E395E0DE
:1031E0000E944D0B68EC70E080E090E00E947D0250
:1031F00081E090E090930A04809309041092E70321
:103200001092E60380E00E94C501892B09F049C0B5
:1032100080E00E94C501892BE1F56AE070E080E062
:1032200090E00E947D02F4CF053011055CF30E940E
:10323000BE0865EC72E084E395E00E944D0B6AEDF8
:1032400072E0C1010E94DF0961011AE9E12E19E96A
:10325000F12E0FE112E42AE939E945E152E463E095
:1032600070E08CE190E00E94D20FC1010E949809A9
:1032700068EC70E080E090E00E947D021092E5032F
:103280001092E403A1E0B0E0B0930A04A093090413
:10329000B5CF0E94BE0882E090E09093E703809350
:1032A000E6038091E6039091E703029709F01CCAB8
:1032B00060E080E00E9467096EED72E084E395E0D3
:1032C0000E944D0B61E080E00E94670967E073E0B7
:1032D00084E395E00E944D0B68E071E081E00E947C
:1032E0007C0961E088E00E94670961E084E395E081
:1032F0000E94760964E670E080E090E00E947D0222
:1033000082E00E94C501892B09F040C082E00E9442
:10331000C50190930E0480930D040091E403109175
:10332000E50380910D0490910E04892B69F464E605
:1033300070E080E090E00E947D020F5F1F4F1093CD
:10334000E5030093E403E2CFC8010197049780F5F9
:1033500064E670E080E090E00E947D020E94BE087A
:103360006FEB72E084E395E00E944D0B68EC70E037
:1033700080E090E00E947D02E1E0F0E0F0930A043A
:10338000E09309041092E7031092E60380E00E94A4
:10339000C501892B09F0A8C980E00E94C501892BCD
:1033A000E1F56AE070E080E090E00E947D02F4CFF9
:1033B000053011055CF30E94BE0865EC72E084E301
:1033C00095E00E944D0B6CEE72E0C1010E94DF0996
:1033D00061011DECE12E1CECF12E04E112E42AE95E
:1033E00039E945E152E462E070E081E190E00E9459
:1033F000D20FC1010E94980968EC70E080E090E073
:103400000E947D021092E5031092E40321E030E077
:1034100030930A0420930904B5CF0E94BE0810928D
:10342000E7031092E60360C98D30910509F016C1DB
:1034300060E081E00E94670963EF72E084E395E059
:103440000E944D0B61E088E00E9467092091100105
:10345000309111018091E2039091E303820F931F59
:103460000E944C0A60E071E081E00E947C0960E00B
:1034700080E00E94670961E084E395E00E9476099C
:1034800068E071E082E00E947C0961E080E00E94D7
:10349000670962E084E395E00E9476096AE070E0E3
:1034A00080E090E00E947D0282E00E94C501892BAD
:1034B00009F0A1C082E00E94C50190930E048093A0
:1034C0000D040091E4031091E50380910D049091A7
:1034D0000E04892B69F464E670E080E090E00E94BD
:1034E0007D020F5F1F4F1093E5030093E403E2CFCB
:1034F000C80101970497E8F564E670E080E090E089
:103500000E947D020E94BE086FEB72E084E395E0AA
:103510000E944D0B68EC70E080E090E00E947D021C
:103520001092E5031092E4031092E3031092E20379
:1035300083E090E090930A048093090460E080E0C7
:103540000E94670966E073E084E395E00E944D0BFA
:1035500061E088E00E94670920911001309111011B
:103560008091E2039091E303820F931F0E944C0A23
:10357000BBC80530110514F30E94BE0865EC72E06B
:1035800084E395E00E944D0B68EC70E080E090E0F1
:103590000E947D021092E5031092E40380911001D5
:1035A000909111012091E2033091E303820F931F68
:1035B00090931101809310012CE3289FA001299F73
:1035C000500D1124052E000C660B770B8091F9032A
:1035D0009091FA03A091FB03B091FC03840F951F17
:1035E000A61FB71F8093EF039093F003A093F103FE
:1035F000B093F20399CF83E00E94C501892BB1F407
:1036000083E00E94C501892B39F46AE070E080E014
:1036100090E00E947D02F4CF8091E2039091E30359
:1036200001969093E3038093E20392CF80E00E949F
:10363000C501892B09F08CCF80E00E94C501892B40
:1036400039F46AE070E080E090E00E947D02F4CFFF
:103650008091E2039091E3030197E3CF8E309105CF
:1036600009F036C160E081E00E94670968E173E01B
:1036700084E395E00E944D0B61E088E00E946709B9
:1036800020E030E040E752E46091DE037091DF0318
:103690008091E0039091E1030E943D240E94750A0D
:1036A00060E071E081E00E947C0960E080E00E94BF
:1036B000670961E084E395E00E94760968E071E0C3
:1036C00082E00E947C0961E080E00E94670962E07C
:1036D00084E395E00E9476096AE070E080E090E083
:1036E0000E947D0282E00E94C501892B09F0A7C0DB
:1036F00082E00E94C50190930E0480930D04009116
:10370000E4031091E50380910D0490910E04892B40
:1037100069F464E670E080E090E00E947D020F5F53
:103720001F4F1093E5030093E403E2CFC801019714
:10373000049708F046C064E670E080E090E00E94E4
:103740007D020E94BE086FEB72E084E395E00E9468
:103750004D0B68EC70E080E090E00E947D021092DA
:10376000E5031092E4031092DE031092DF0310923F
:10377000E0031092E10384E090E090930A048093C8
:10378000090460E080E00E94670966E073E084E37A
:1037900095E00E944D0B61E088E00E94670920E0FF
:1037A00030E040E752E46091DE037091DF038091E6
:1037B000E0039091E1030E943D240E94750A0C945D
:1037C000741305301105ECF20E94BE0865EC72E03E
:1037D00084E395E00E944D0B68EC70E080E090E09F
:1037E0000E947D021092E5031092E4032091DE0313
:1037F0003091DF034091E0035091E10360911901A2
:1038000070911A0180911B0190911C010E943D242E
:103810006093190170931A0180931B0190931C010E
:103820001092DE031092DF031092E0031092E10386
:10383000A4E0B0E0B0930A04A0930904A2CF83E00F
:103840000E94C501892B19F583E00E94C501892BCF
:1038500039F46AE070E080E090E00E947D02F4CFED
:1038600020E030E040E05FE36091DE037091DF0331
:103870008091E0039091E1030E943D246093DE0378
:103880007093DF038093E0039093E10384CF80E0A3
:103890000E94C501892B09F07ECF80E00E94C501FE
:1038A000892B39F46AE070E080E090E00E947D02AC
:1038B000F4CF20E030E040E05FE36091DE03709100
:1038C000DF038091E0039091E1030E943C24D6CF76
:1038D0008F30910509F039C160E081E00E946709ED
:1038E00064E273E084E395E00E944D0B61E088E0C0
:1038F0000E9467092091DA033091DB034091DC03D9
:103900005091DD0360911D0170911E0180911F0196
:10391000909120010E943D240E94750A60E071E0B0
:1039200081E00E947C0960E080E00E94670961E01C
:1039300084E395E00E94760968E071E082E00E94ED
:103940007C0961E080E00E94670962E084E395E021
:103950000E9476096AE070E080E090E00E947D02BB
:1039600082E00E94C501892B09F0A6C082E00E9476
:10397000C50190930E0480930D040091E40310910F
:10398000E50380910D0490910E04892B69F464E69F
:1039900070E080E090E00E947D020F5F1F4F109367
:1039A000E5030093E403E2CFC8010197049708F010
:1039B00045C064E670E080E090E00E947D020E94D5
:1039C000BE086FEB72E084E395E00E944D0B68EC5B
:1039D00070E080E090E00E947D021092E50310927A
:1039E000E4031092DA031092DB031092DC031092CE
:1039F000DD03E5E0F0E0F0930A04E093090460E001
:103A000080E00E94670966E073E084E395E00E942D
:103A10004D0B61E088E00E9467092091DA03309144
:103A2000DB034091DC035091DD0360911D01709137
:103A30001E0180911F0190912001BDCE053011051E
:103A4000F4F20E94BE0865EC72E084E395E00E9407
:103A50004D0B68EC70E080E090E00E947D021092D7
:103A6000E5031092E4032091DA033091DB034091E7
:103A7000DC035091DD0360911D0170911E01809166
:103A80001F01909120010E943D2460931D017093BD
:103A90001E0180931F01909320011092DA0310926F
:103AA000DB031092DC031092DD0325E030E030935D
:103AB0000A0420930904A3CF83E00E94C501892B47
:103AC00019F583E00E94C501892B39F46AE070E0A2
:103AD00080E090E00E947D02F4CF20E030E040E002
:103AE0005FE36091DA037091DB038091DC039091D6
:103AF000DD030E943D246093DA037093DB0380931F
:103B0000DC039093DD0385CF80E00E94C501892B03
:103B100009F07FCF80E00E94C501892B39F46AE06B
:103B200070E080E090E00E947D02F4CF20E030E081
:103B300040E05FE36091DA037091DB038091DC0386
:103B40009091DD030E943C24D6CF8031910509F08D
:103B50001FC160E081E00E94670965E373E084E3D0
:103B600095E00E944D0B61E088E00E94670920917A
:103B70002301309124018091D8039091D903820FC1
:103B8000931F0E944C0A60E071E081E00E947C0972
:103B900060E080E00E94670961E084E395E00E94B4
:103BA000760968E071E082E00E947C0961E080E0D3
:103BB0000E94670962E084E395E00E9476096AE06A
:103BC00070E080E090E00E947D0282E00E94C501EA
:103BD000892B09F0AAC082E00E94C50190930E04CF
:103BE00080930D040091E4031091E50380910D048E
:103BF00090910E04892B69F464E670E080E090E017
:103C00000E947D020F5F1F4F1093E5030093E403B2
:103C1000E2CFC80101970497C8F564E670E080E040
:103C200090E00E947D020E94BE086FEB72E084E388
:103C300095E00E944D0B68EC70E080E090E00E94FF
:103C40007D021092E5031092E4031092D9031092C2
:103C5000D80386E090E090930A048093090460E022
:103C600080E00E94670966E073E084E395E00E94CB
:103C70004D0B61E088E00E9467092091230130919B
:103C800024018091D8039091D9036ECC05301105A1
:103C900034F30E94BE0865EC72E084E395E00E9474
:103CA0004D0B68EC70E080E090E00E947D02109285
:103CB000E5031092E4030091230110912401809107
:103CC000D8039091D903080F191F10932401009372
:103CD00023018091F9039091FA03A091FB03B09125
:103CE000FC038E8B9F8BA88FB98FCE0146960E94C6
:103CF0009E0DDC0113962C911397020F13960C93D3
:103D00000E94E70D6093EB037093EC038093ED0347
:103D10009093EE031092D9031092D803E6E0F0E0FE
:103D2000F0930A04E09309049ACF83E00E94C5014E
:103D3000892BB1F483E00E94C501892B39F46AE034
:103D400070E080E090E00E947D02F4CF8091D80383
:103D50009091D90301969093D9038093D80389CF8A
:103D600080E00E94C501892B09F083CF80E00E948A
:103D7000C501892B39F46AE070E080E090E00E9490
:103D80007D02F4CF8091D8039091D9030197E3CFBE
:103D9000419711F00C9474138091D6039091D7033E
:103DA000069709F46EC060E080E00E94670965E450
:103DB00073E084E395E00E944D0B60E086E00E9492
:103DC00067098091F8030E94450A60E089E00E943B
:103DD00067096CE072E084E395E00E944D0B60E0BF
:103DE0008AE00E9467098091F7030E94450A60E01B
:103DF0008CE00E9467096CE072E084E395E00E9429
:103E00004D0B60E08DE00E9467098091F6030E94EF
:103E1000450A61E080E00E9467096BE473E084E397
:103E200095E00E944D0B61E085E00E94670980915A
:103E30001201909113010E944C0A61E089E00E94F6
:103E4000670961E573E084E395E00E944D0B61E052
:103E50008AE00E9467098091F5030E94450A61E0AB
:103E60008CE00E94670961E573E084E395E00E94BD
:103E70004D0B61E08DE00E9467098091F4030E9480
:103E8000450A8091D6039091D703009709F041C06D
:103E900083E00E94C501892B89F48091F8038F5F2C
:103EA0008093F803893110F01092F80368EC70E009
:103EB00080E090E00E947D020C94731480E00E94E8
:103EC000C501892B59F48091F80381508093F80340
:103ED000893160F388E18093F803E8CF82E00E94A3
:103EE000C501892B11F00C94741321E030E030935C
:103EF000D7032093D60382E00E94C501892B11F0DD
:103F00000C9474136AE070E080E090E00E947D02FF
:103F1000F2CF81309105F1F583E00E94C501892B34
:103F200071F48091F7038F5F8093F7038D3310F066
:103F30001092F70364E670E080E090E0BBCF80E091
:103F40000E94C501892B59F48091F7038150809319
:103F5000F7038D3378F38CE38093F703EBCF82E0A4
:103F60000E94C501892B11F00C94741382E090E03B
:103F70009093D7038093D60382E00E94C501892BDA
:103F800011F00C9474136AE070E080E090E00E94FD
:103F90007D02F2CF82309105D9F583E00E94C50100
:103FA000892B51F48091F6038F5F8093F6038D3354
:103FB00008F21092F603BECF80E00E94C501892B63
:103FC00061F48091F60381508093F6038D3308F4F9
:103FD000B1CF8CE38093F603ADCF82E00E94C501A0
:103FE000892B11F00C94741383E090E09093D70325
:103FF0008093D60382E00E94C501892B11F00C94B6
:1040000074136AE070E080E090E00E947D02F2CFDD
:104010008330910509F04DC083E00E94C501892BD2
:10402000A1F48091120190911301019690931301D4
:1040300080931201833098400CF438CF86EE97E0DD
:10404000909313018093120131CF80E00E94C5014B
:10405000892BA1F480911201909113010197909303
:104060001301809312018330984008F41FCFECE3D2
:10407000F0E0F0931301E093120118CF82E00E9468
:10408000C501892B11F00C94741324E030E03093B7
:10409000D7032093D60382E00E94C501892B11F03B
:1040A0000C9474136AE070E080E090E00E947D025E
:1040B000F2CF84309105E1F583E00E94C501892BA0
:1040C00059F48091F5038F5F8093F5038D3008F4E8
:1040D000EDCE1092F503EACE80E00E94C501892B57
:1040E00061F48091F50381508093F5038D3008F4DD
:1040F000DDCE8CE08093F503D9CE82E00E94C5012D
:10410000892B11F00C94741385E090E09093D70301
:104110008093D60382E00E94C501892B11F00C9494
:1041200074136AE070E080E090E00E947D02F2CFBC
:1041300085309105E1F583E00E94C501892B59F492
:104140008091F4038F5F8093F4038F3108F4AECE37
:104150001092F403ABCE80E00E94C501892B51F48C
:104160008091F50381508093F5038F3108F49ECE42
:104170008EE1C0CF82E00E94C501892B11F00C9422
:104180007413A6E0B0E0B093D703A093D6030E94C7
:10419000BE0882E00E94C501892B11F00C947413B3
:1041A0006AE070E080E090E00E947D02F2CF069726
:1041B00011F00C94741360E080E00E94670963E5DD
:1041C00073E084E395E00E944D0B61E080E00E9483
:1041D000670961E673E084E395E00E944D0B83E09C
:1041E0000E94C501892B09F035C10E94BE0865EC0B
:1041F00072E084E395E00E944D0BF090F603E090AE
:10420000F703D090F803C090F403B090F503009149
:104210001201025B0F83BE82CD82DB82EA82F982C9
:10422000C1010E945A05A1010E941A06AA24A39462
:10423000A0920F0488E68093300410921F0510921C
:104240001E0560E082E295E00E942B0529811AE0BC
:10425000822F612F0E94E224682F660F680F660F7D
:10426000620F82E295E00E942B052A81822F612F46
:104270000E94E224682F660F680F660F620F82E2C9
:1042800095E00E942B052B81822F612F0E94E22452
:10429000682F660F680F660F620F82E295E00E943A
:1042A0002B056C8182E295E00E942B052D81822FE7
:1042B000612F0E94E224682F660F680F660F620F5D
:1042C00082E295E00E942B052E81822F612F0E94B1
:1042D000E224682F660F680F660F620F82E295E096
:1042E0000E942B052F812E51822F612F0E94E224E4
:1042F000682F660F680F660F620F82E295E00E94DA
:104300002B0581E00E94E403A0920F0410921F0588
:1043100010921E056FE082E295E00E942B0581E07D
:104320000E94E40381110DC061E088E60E9415033C
:10433000109221058093200582E295E00E94E4041A
:104340008AA311E010930F0410921F0510921E050E
:104350006FE082E295E00E942B056AA16F7782E20E
:1043600095E00E942B0581E00E94E4031093140164
:10437000109123010F83BE82CD82DB82EA82F98213
:10438000C1010E945A056A8B7B8B8C8B9D8BCE0161
:1043900042960E949E0DFC012381120F13830E94FE
:1043A000E70D4B015C018092EB039092EC03A0922D
:1043B000ED03B092EE030E94F606E090D303F12CD9
:1043C000C501B4010E94F6060091D40310E0C501B6
:1043D000B4010E94F606C090D503D12CFEE4CF1A9A
:1043E000F8EFDF0A4090F9035090FA036090FB0366
:1043F0007090FC03C301B2010E94F6068090D303C3
:10440000912CC301B2010E94F606A090D403B12CF6
:10441000C301B2010E94F6068091D50390E0960197
:10442000A401B5018E54984F0E9454079093EA035B
:104430008093E9036CE271E080E090E00E947D02ED
:1044400010920A04109209041092D7031092D60316
:104450000C94741380E00E94C501892B11F00C9418
:1044600074130E94BE086FE673E084E395E00E9437
:104470004D0B6CE271E080E090E00E947D0281E0F3
:1044800080931401DDCF8EE295E00C9498090E9490
:10449000892208F481E00895E89409C097FB3EF46E
:1044A00090958095709561957F4F8F4F9F4F992381
:1044B000A9F0F92F96E9BB279395F69587957795FF
:1044C0006795B795F111F8CFFAF4BB0F11F460FFBF
:1044D0001BC06F5F7F4F8F4F9F4F16C0882311F017
:1044E00096E911C0772321F09EE8872F762F05C02B
:1044F000662371F096E8862F70E060E02AF09A95C6
:10450000660F771F881FDAF7880F9695879597F9BA
:104510000895990F0008550FAA0BE0E8FEEF161654
:104520001706E807F907C0F012161306E407F507A7
:1045300098F0621B730B840B950B39F40A2661F01B
:10454000232B242B252B21F408950A2609F4A140BE
:10455000A6958FEF811D811D08950E94C0220C94A5
:1045600031230E94232338F00E942A2320F0952330
:1045700011F00C941A230C94202311240C9465231D
:104580000E94422370F3959FC1F3950F50E0551F91
:10459000629FF001729FBB27F00DB11D639FAA2798
:1045A000F00DB11DAA1F649F6627B00DA11D661FE7
:1045B000829F2227B00DA11D621F739FB00DA11D08
:1045C000621F839FA00D611D221F749F3327A00DC2
:1045D000611D231F849F600D211D822F762F6A2F5E
:1045E00011249F5750409AF0F1F088234AF0EE0FC3
:1045F000FF1FBB1F661F771F881F91505040A9F7F0
:104600009E3F510580F00C941A230C9465235F3F64
:10461000E4F3983ED4F3869577956795B795F7952B
:10462000E7959F5FC1F7FE2B880F911D96958795A3
:1046300097F9089597F99F6780E870E060E0089522
:104640009FEF80EC089500240A94161617061806AA
:104650000906089500240A94121613061406050686
:104660000895092E0394000C11F4882352F0BB0F17
:1046700040F4BF2B11F460FF04C06F5F7F4F8F4F7A
:104680009F4F089557FD9058440F551F59F05F3FB5
:1046900071F04795880F97FB991F61F09F3F79F064
:1046A00087950895121613061406551FF2CF4695E6
:1046B000F1DF08C0161617061806991FF1CF869568
:1046C0007105610508940895E894BB27662777274C
:1046D000CB0197F90895DB018F939F930E94EB2301
:1046E000BF91AF91A29F800D911DA39F900DB29F8E
:1046F000900D11240895AA1BBB1B51E107C0AA1FEE
:10470000BB1FA617B70710F0A61BB70B881F991F72
:104710005A95A9F780959095BC01CD01089597FB16
:10472000072E16F4009407D077FD09D00E947B2352
:1047300007FC05D03EF4909581959F4F08957095A4
:1047400061957F4F0895A1E21A2EAA1BBB1BFD01A4
:104750000DC0AA1FBB1FEE1FFF1FA217B307E40760
:10476000F50720F0A21BB30BE40BF50B661F771FB8
:10477000881F991F1A9469F7609570958095909598
:104780009B01AC01BD01CF010895052E97FB1EF4DE
:1047900000940E94DC2357FD07D00E94A32307FC4E
:1047A00003D04EF40C94DC23509540953095219520
:1047B0003F4F4F4F5F4F089590958095709561954D
:1047C0007F4F8F4F9F4F08950E942D24B7FF08956C
:1047D000821B930B08950E942D24A59F900DB49FDA
:1047E000900DA49F800D911D112408952F923F924A
:1047F0004F925F926F927F928F929F92AF92BF92F1
:10480000CF92DF92EF92FF920F931F93CF93DF939C
:10481000CDB7DEB7CA1BDB0B0FB6F894DEBF0FBEF9
:10482000CDBF09942A88398848885F846E847D8446
:104830008C849B84AA84B984C884DF80EE80FD8048
:104840000C811B81AA81B981CE0FD11D0FB6F894BE
:10485000DEBF0FBECDBFED010895A29FB001B39F93
:10486000C001A39F700D811D1124911DB29F700D79
:10487000811D1124911D08955058BB27AA270E941D
:1048800054240C9431230E94232338F00E942A23BD
:1048900020F039F49F3F19F426F40C9420230EF4F1
:1048A000E095E7FB0C941A23E92F0E94422358F36A
:1048B000BA17620773078407950720F079F4A6F505
:1048C0000C9464230EF4E0950B2EBA2FA02D0B014F
:1048D000B90190010C01CA01A0011124FF27591B45
:1048E00099F0593F50F4503E68F11A16F040A22F4B
:1048F000232F342F4427585FF3CF469537952795BC
:10490000A795F0405395C9F77EF41F16BA0B620BBA
:10491000730B840BBAF09150A1F0FF0FBB1F661F01
:10492000771F881FC2F70EC0BA0F621F731F841F44
:1049300048F4879577956795B795F7959E3F08F06A
:10494000B0CF9395880F08F09927EE0F979587952C
:1049500008950E944A2388F09F5798F0B92F99270D
:10496000B751B0F0E1F0660F771F881F991F1AF05A
:10497000BA95C9F714C0B13091F00E946423B1E038
:1049800008950C946423672F782F8827B85F39F037
:10499000B93FCCF3869577956795B395D9F73EF4F3
:1049A00090958095709561957F4F8F4F9F4F08959B
:1049B0000E94892208F48FEF08950E948922880BB3
:1049C000990B0895991B79E004C0991F961708F078
:1049D000961B881F7A95C9F780950895B7FF0C94A8
:1049E000EB230E94EB23821B930B0895EE0FFF1F16
:1049F0000590F491E02D09940F931F93CF93DF93CB
:104A00008230910510F482E090E0E0916005F09131
:104A1000610530E020E0B0E0A0E0309799F4211586
:104A2000310509F44AC0281B390B24303105D8F56B
:104A30008A819B816115710589F1FB0193838283D2
:104A4000FE0111C04081518102811381481759072D
:104A5000E0F04817590799F4109761F012960C93FB
:104A6000129713961C933296CF01DF91CF911F912D
:104A70000F9108950093600510936105F4CF2115FF
:104A8000310551F04217530738F0A901DB019A01B3
:104A9000BD01DF01F801C1CFEF01F9CF90936105AE
:104AA00080936005CDCFFE01E20FF31F81939193B8
:104AB0002250310939832883D7CF20915E05309168
:104AC0005F05232B41F42091270130912801309379
:104AD0005F0520935E052091250130912601211567
:104AE000310541F42DB73EB74091290150912A017B
:104AF000241B350BE0915E05F0915F05E217F3078B
:104B0000A0F42E1B3F0B2817390778F0AC014E5F3D
:104B10005F4F2417350748F04E0F5F1F50935F0516
:104B200040935E05819391939FCFF0E0E0E09CCFAE
:104B3000CF93DF930097E9F0FC0132971382128242
:104B4000A0916005B0916105ED0130E020E0109783
:104B5000A1F420813181820F931F20915E05309155
:104B60005F052817390709F061C0F0935F05E093EE
:104B70005E05DF91CF910895EA01CE17DF07E8F5D2
:104B80004A815B819E0141155105B1F7E901FB8323
:104B9000EA8349915991C40FD51FEC17FD0761F4C1
:104BA000808191810296840F951FE9019983888302
:104BB000828193819B838A83F0E0E0E012968D915D
:104BC0009C9113970097B9F52D913C911197CD01C8
:104BD0000296820F931F20915E0530915F05281782
:104BE000390739F6309751F510926105109260053A
:104BF000B0935F05A0935E05BCCFD383C283408191
:104C00005181840F951FC817D90761F44E5F5F4F1C
:104C100088819981480F591F518340838A819B81E4
:104C2000938382832115310509F0B0CFF09361059C
:104C3000E09360059ECFFD01DC01C0CF138212829C
:104C4000D7CFB0E0A0E0E7E2F6E20C94F8238C01C5
:104C5000009751F4CB010E94FC248C01C801CDB710
:104C6000DEB7E0E10C941424FC01E60FF71F9C0171
:104C700022503109E217F30708F49DC0D901CD9104
:104C8000DC911197C617D70798F0C530D10530F3DE
:104C9000CE0104978617970708F3C61BD70B2297F8
:104CA000C193D1936D937C93CF010E949825D6CF69
:104CB0005B01AC1ABD0A4C018C0E9D1EA0916005D3
:104CC000B0916105512C412CF12CE12C109731F55C
:104CD00080915E0590915F058815990509F05CC08B
:104CE0004616570608F058C080912501909126017C
:104CF000009741F48DB79EB74091290150912A0148
:104D0000841B950BE817F90708F055C0F0935F0571
:104D1000E0935E05F90171836083A0CF8D919C9132
:104D2000119712966C90129713967C901397A81572
:104D3000B90559F56C0142E0C40ED11CCA14DB045C
:104D400020F1AC014A195B09DA011296159780F03F
:104D50006282738251834083D9016D937C93E11405
:104D6000F10471F0D7011396FC93EE93129776CF6E
:104D700022968C0F9D1FF90191838083F301EFCF61
:104D8000F0936105E093600569CF4816590608F471
:104D90002C017D01D3019ACFCB010E94FC247C0120
:104DA000009749F0AE01B8010E94DE26C8010E94BA
:104DB0009825870153CF10E000E050CFFB01DC01C4
:104DC00002C001900D9241505040D8F70895FB0168
:104DD000DC0101900D920020E1F70895AEE0B0E013
:104DE000E4EFF6E20C9404240D891E8986E08C839E
:104DF0001A8309838FEF9FE79E838D83AE01475E01
:104E00005F4F6F89788DCE0101960E9411272F8107
:104E10003885020F131FF80110822E96E4E00C94DF
:104E20002024ABE0B0E0E7E1F7E20C94F6237C014C
:104E30003B018A01FC0117821682838181FFC8C170
:104E4000CE0101965C01F7019381F30193FD8591F9
:104E500093FF81913F01882309F453C1853239F4CE
:104E600093FD859193FF81913F01853229F4B7012C
:104E700090E00E940129E7CF912C212C312CFFE1F9
:104E8000F31538F08B3211F190F4803209F183324E
:104E900029F137FC3CC020ED280F2A3050F536FEB2
:104EA00020C08AE0989E200D1124922E06C08D32DB
:104EB00091F0803371F7689430F8F30193FD859198
:104EC00093FF81913F018111DACF21C0689431F8BD
:104ED000689432F8F2CF689433F8EFCF689434F8DE
:104EE000ECCFEAE02E9E200D1124222E689435F896
:104EF000E4CF8E3229F436FC04C1689436F8DDCF55
:104F00008C3619F4689437F8D8CF8836B1F2982FD8
:104F10009F7D95549330E0F08336A1F18337C1F142
:104F2000833509F063C02801F2E04F0E511CF801EF
:104F3000C080D180692D70E036FC02C06FEF7FEF3A
:104F4000C6010E94EB284C01689437F882010AC020
:104F50000C5F1F4FFFE3F98388248394912C650134
:104F6000E89437F833FE2DC0522C8114910471F56A
:104F7000552009F468CFB70180E290E00E94012932
:104F80005A94F6CFF801808189830E5F1F4FE4CFDA
:104F90002801F2E04F0E511CF801C080D180692D2C
:104FA00070E036FC02C06FEF7FEFC6010E94F6286A
:104FB0004C018201D5CFB70180E290E00E94012927
:104FC0002A942814190409F0B0F7CECFF60137FC63
:104FD000859137FE81916F01B70190E00E94012910
:104FE00051105A94F1E08F1A9108BFCF843619F00E
:104FF000893609F077C0F80137FE6BC06081718196
:10500000828193810C5F1F4FF32DFF763F2E97FF18
:1050100009C090958095709561957F4F8F4F9F4FF8
:10502000689437F82AE030E0A5010E943129C82EA3
:10503000CA188C2C432C36FE0CC0E89440F8C914D6
:1050400040F434FE05C032FC03C0F32DFE7E4F2E2B
:10505000892C44FE95C0FE01EC0DF11D808180334A
:1050600009F087C0242D297E422E842D8870582E69
:1050700043FC95C040FE8FC09C2C821418F42C0C6D
:10508000922C981844FE91C0B70180E390E00E94F2
:10509000012942FE09C088E790E041FE02C088E590
:1050A00090E0B7010E940129C91408F48AC0CA948B
:1050B000D12C9FEFC91AD90ACA0CDB1CF6018291C8
:1050C0006F01B70190E00E940129AC14BD04B1F753
:1050D0004FCF60817181072E000C880B990B0E5FFA
:1050E0001F4F92CFD32CE894D4F82AE030E08537D4
:1050F00039F1232D297FD22E8F3601F148F48835DE
:10510000A9F0F701868197812B96E2E10C94122495
:10511000803749F08837A9F7D4FE02C06894D2F8E6
:1051200020E130E00DC06894D4F8F6CF34FE03C01F
:10513000822F8660D82E20E132E002C028E030E0E5
:10514000F801D7FE0FC060817181828193810C5F6D
:105150001F4FA5010E943129C82ECA183D2CE89482
:1051600037F867CF6081718190E080E00E5F1F4F5C
:10517000F0CF42FC02C0839478CF8394839475CFA0
:10518000842D867809F471CFF6CFB70180E290E0E4
:105190000E94012983948214C0F3512C73CF522CA6
:1051A0005818821408F46ECFF8CF842D867809F44D
:1051B0007BCF8BE241FE80E247FC8DE2B70190E0BD
:1051C00071CFB70180E390E00E9401299A946CCFDF
:1051D0008FEF9FEF99CFFC01059061507040011057
:1051E000D8F7809590958E0F9F1F0895FC01615010
:1051F000704001900110D8F7809590958E0F9F1FF9
:1052000008950F931F93CF93DF93182F092FEB016E
:105210008B8181FD09C01FEF0FEF812F902FDF9150
:10522000CF911F910F91089582FF14C02E813F816D
:105230008C819D81281739073CF4E881F981CF01E1
:1052400001969983888310838E819F8101969F8325
:105250008E83E3CFE885F985812F0995892BA1F30A
:10526000DACFFA01AA27283051F1203181F1E894F0
:105270006F936E7F6E5F7F4F8F4F9F4FAF4FB1E049
:105280003ED0B4E03CD0670F781F891F9A1FA11D44
:10529000680F791F8A1F911DA11D6A0F711D811D45
:1052A000911DA11D20D009F468943F912AE0269F0A
:1052B00011243019305D3193DEF6CF010895462F69
:1052C0004770405D4193B3E00FD0C9F7F6CF462F4A
:1052D0004F70405D4A3318F0495D31FD40524193B3
:1052E00002D0A9F7EACFB4E0A69597958795779570
:1052F0006795BA95C9F700976105710508959B01F7
:10530000AC010A2E06945795479537952795BA957F
:10531000C9F7620F731F841F951FA01D089510E029
:10532000C2E6D0E004C0FE010E94F6242196C336F6
:08533000D107C9F7F894FFCF83
:10533800040E1F0E0E0E0E0E0E0E0E0E0E1F0E0477
:105348002D00E4070100008C420000484266661602
:10535800420200150000006205800000001F003BAB
:10536800005A0078009700B500D400F3001101300E
:10537800014E011F1C1F1E1F1E1F1F1E1F1E1F0068
:105388000000002F018F00BC007C01ED00CB00DF86
:1053980000000000002B05FE042907D404F704E4EC
:1053A80004D5040000000076098F00290728076E3D
:1053B800616E00696E66006F766600474552C4B03C
:1053C80000546176756B006173647361640046759F
:1053D800726B616E20415959494C44495A00313623
:1053E8003030383131393033350043455652494C25
:1053F80049594F5200204D414B494E412020202011
:1054080020202020202000204241534C4154494C68
:1054180049594F522E2E2E2E200020253032642F2F
:10542800253032642D253032643A253032643A25ED
:105438003032642000204B414C414E203A00204736
:10544800554E0020534943414B4C494B203A2000CC
:10545800204E454D3A200059554D5552544120543F
:1054680055525520004F544F4D4154494B20202050
:105478002020202000444F4E4455524D452041598C
:10548800415249004D414E55454C202020202020B6
:10549800202020004B554C55434B41205355524535
:1054A80053490053414154204159415249004B55F9
:1054B8004C55434B41204241534C41542021004B11
:1054C800554C55434B41204241534C4144490054AB
:1054D80075723A0043455649524D45204B414C415F
:1054E8004E20444B00312D544156554B2020004945
:1054F8005054414C004B4159444544494C49594F3B
:105508005200322D4B415A2020004B617A00332D36
:1055180042494C44495243494E202000426C64722F
:10552800636E00444F4E4455524D45205A4D4E200F
:1055380041594152490020202020202020202020AD
:105548002020202020202000204E454D2041594178
:105558005249200020534943414B4C494B20415963
:105568004152492000204B554C55434B412041594D
:105578004152492000536161743A00546172683A9B
:10558800002F006B61796974206963696E3A202B7A
:1055980000697074616C206963696E3A202D004956
:0E55A8005054414C204544494C49594F520043
:00000001FF
